:020000040800F2
:1000000000180020FD5C0008295700082B57000845
:1000100000000000000000000000000000000000E0
:100020000000000000000000000000002D57000844
:1000300000000000000000002F57000831570008A2
:100040006D5D00086D5D00086D5D00086D5D000868
:100050006D5D00086D5D00086D5D00086D5D000858
:100060006D5D00086D5D0008B55700083D5700083C
:100070006D5D00086D5D00086D5D00086D5D000838
:100080006D5D000800000000000000006D5D0008CC
:10009000000000006D5D00086D5D00086D5D0008EA
:1000A00000000000C55700086D5D00086D5D000888
:1000B00075570008000000006557000855570008F4
:1000C00010B5064C2378002B07D1054B002B02D02E
:1000D000044800E000BF0123237010BD6001002030
:1000E00000000000DC5D0008044B10B5002B03D0BD
:1000F0000349044800E000BF10BDC04600000000F6
:1001000064010020DC5D000802780B78002A03D02F
:10011000013001319A42F7D0D01A70470023C25CF7
:100120000133002AFBD1581E7047000002B471460B
:1001300049084900095649008E4402BC7047C04630
:1001400002B4714649084900095C49008E4402BC6A
:100150007047C046002243088B4274D303098B4288
:100160005FD3030A8B4244D3030B8B4228D3030C87
:100170008B420DD3FF22090212BA030C8B4202D329
:100180001212090265D0030B8B4219D300E0090A51
:10019000C30B8B4201D3CB03C01A5241830B8B425A
:1001A00001D38B03C01A5241430B8B4201D34B0343
:1001B000C01A5241030B8B4201D30B03C01A5241A8
:1001C000C30A8B4201D3CB02C01A5241830A8B422D
:1001D00001D38B02C01A5241430A8B4201D34B0216
:1001E000C01A5241030A8B4201D30B02C01A52417A
:1001F000CDD2C3098B4201D3CB01C01A524183092E
:100200008B4201D38B01C01A524143098B4201D367
:100210004B01C01A524103098B4201D30B01C01A92
:100220005241C3088B4201D3CB00C01A524183080C
:100230008B4201D38B00C01A524143088B4201D339
:100240004B00C01A5241411A00D201465241104699
:100250007047FFE701B5002000F006F802BDC04678
:100260000029F7D076E770477047C04610B5040004
:1002700002F01EFCFA218900FFF76CFF00F0F0FC91
:10028000002221000120404200F0A4FC002010BD0B
:1002900010B5064A136810210B4313600020FFF7C6
:1002A000E5FF05F03FF9002010BDC04600200240E8
:1002B000024A1368013313607047C046B804002037
:1002C000014B18687047C046B804002030B583B0B1
:1002D0000190FFF7F5FF0500019C631C00D001347D
:1002E000FFF7EEFF401BA042FAD303B030BD000081
:1002F000F0B501273A004B699A4004688026B600A1
:10030000A359414D2B404D6A2D022B433B43A35132
:1003100006688725AD007359D44323407351CB69D8
:10032000002B1CD10668103D735923407351CB68D4
:100330001D044B681B041B0C1D434B694833DB0039
:1003400006689D518B681B040D682D042D0C2B43F2
:100350004D694835ED000668B44665446B60CB696D
:10036000012B1DD08B69002B39D106688125AD008A
:100370007359234073510B69002B37D106688525CB
:10038000AD0073591C4074510B6A012B35D00168C4
:10039000802292008B58012083438B500020F0BDB7
:1003A00006688325AD007359134373510B681D0410
:1003B0004B681B041B0C1D434B694833DB0006686C
:1003C0009D518B681B04CD682D042D0C2B434D696A
:1003D0004835ED000668B44665446B60C2E70668C0
:1003E0008125AD00735913437351C4E70568852413
:1003F000A4002B5913432B51C6E7016887239B00A8
:10040000CC582243CA50C2E7FFC0FFFF70B5041E9C
:1004100000D1B9E03D23C35C002B1FD002213D2356
:10042000E154226813688B43136022681368013912
:100430000B431360FFF744FF050023685A68D20797
:1004400012D4FFF73DFF401B0A28F6D903223D23B3
:10045000E2540022013BE254032070BD00223C33F1
:10046000C25405F089F8D9E75A68D2077BD5A2694A
:10047000012A50D01A6880218A431A60E369012B4F
:100480004ED02268136840218B431360236A012BEE
:100490004CD02268136820218B431360636A012BC0
:1004A0004AD02268136810218B431360A36A012B82
:1004B00048D02268136808218B431360E36A012B3C
:1004C00046D02268136804218B4313602168A36817
:1004D000E268134322691343626913436268013A75
:1004E0001343CB612268136801218B431360FFF72C
:1004F000E7FE050023685A68D2072FD5FFF7E0FE14
:10050000401B0A28F6D903223D23E2540022013B76
:10051000E2540320A1E71A6880210A431A60ADE77C
:100520002268136840210B431360AFE72268136809
:1005300020210B431360B1E72268136810210B439D
:100540001360B3E72268136808210B431360B5E713
:100550002268136804210B431360B7E75B68DB076D
:1005600009D5002300E00023012B06D004223D23FF
:10057000E254012071E70123F6E7002323640122FE
:100580003D33E254002068E7012066E7F8B5040037
:1005900003689A68520106D49A68120103D49A68D3
:1005A000D20000D4A7E03C22A25C012A00D1A7E03F
:1005B00001213C22A1540132A25CD2B2322A12D0D3
:1005C000622A14D0222A03D012213D22A15402E033
:1005D00041311B32A1549A6852010CD49A6812011D
:1005E0006AD5012208E052213D22A154F3E772218D
:1005F0003D22A154EFE70022110018310901CD5826
:1006000001202840C850216B8B68002B56D12568EB
:1006100010001830000146590B685B05C9680B4390
:1006200033434351216B0F250B692B400B611100A4
:100630001831090123685B185868A843586023687B
:100640005B185868256B2D6928435860206BC37D63
:100650001B06857D2D042B43457D2D022B43007DFC
:1006600003431201206880188930FF300360206B3B
:10067000C37E1B06857E2D042B43457E2D022B4316
:10068000007E03432068844662448D32FF3213604B
:1006900022688B58012003438B50FFF711FE3D2346
:1006A000E35CDBB2522B1ED0722B20D0422B12D037
:1006B00001223D23E25411E002229DE7256810004B
:1006C0001830000146594F68FF003B43C9680B438F
:1006D00033434351A6E72222053BE25400223C2348
:1006E000E2540020F8BD32223D23E254F6E76222B4
:1006F0003D23E254F2E704223D23C2540120F1E7F6
:100700000220EFE730B53C23C35C012B7DD00122F2
:100710003C23C25400290FD10133C35C222B1CD0CF
:100720003D23C35C422B18D03D23C35C622B14D005
:100730003D23C35C722B10D0012913D0002944D172
:100740003D23C35CDBB2322B37D0522B39D0122B76
:100750001DD022223D23C2541CE000223C23C2545F
:10076000022053E03D23C35C322B0BD03D23C35CFE
:10077000522B07D03D23C35C622B03D03D23C35CC7
:10078000722BDBD100223C23C25402203EE04222E5
:100790002B33C25400220264046865698F231B0254
:1007A0002B4363613C23C254002927D0026853695C
:1007B00050210B435361002028E062223D23C254A4
:1007C000E8E772223D23C254E4E73D23C35CDBB279
:1007D000222B0BD0422B0DD0122B03D032223D23E3
:1007E000C254D7E752222B33C254D3E762223D23AF
:1007F000C254CFE772223D23C254CBE7026853694B
:100800000A310B435361002000E0022030BD7047E5
:1008100010B50268536901218B4353613D23C35CCA
:10082000122B0CD03D23C35CDBB2522B14D0722BA5
:1008300016D0422B09D001223D23C25408E00268A1
:10084000536909490B405361ECE72222053BC2542E
:10085000FFF7DDFF002010BD32223D23C254F7E731
:1008600062223D23C254F3E7FF70FFFF70B50029F9
:1008700000D083E0436B0A001B3212010468145954
:10088000042222409A607BD10A001B3212010468C4
:100890001259520D1A600A001B32120104681559D0
:1008A0006D0801242C40DC600468A41865680F24DE
:1008B0002C401C610468A44662445468240AFF2248
:1008C0002240DA6119620A010468A418B934FF34BD
:1008D00024681C750468A418B934FF342468240AF9
:1008E0005C750468A418B934FF342468240C9C7522
:1008F0000468A418B934FF342468240EDC75046835
:10090000A418BD34FF3424681C760468A418BD34D0
:10091000FF342468240A5C760468A418BD34FF34CC
:100920002468240C9C760468A4466244BD32FF32DD
:100930001268120EDA7600292AD10268D3682024C0
:100940002343D36002685369163CA34353613D239C
:10095000C35C222B27D03D23C35C322B23D000293C
:1009600036D13D23C35CDBB2622B29D0722B2BD056
:10097000422B1ED001223D23C2541DE0836B7AE737
:100980000A001B32120104681259D2085A6082E729
:1009900002681369202423431361026853693034C9
:1009A000A3435361D3E702685369164C2340536154
:1009B000D5E71222053BC25403F004FE002070BDAF
:1009C00032223D23C254F7E752223D23C254F3E7BB
:1009D0003D23C35CDBB2622B0BD0722B0DD0522BAC
:1009E00003D001223D23C254E6E71222153BC25434
:1009F000E2E722223D23C254DEE742223D23C254D5
:100A0000DAE7C046FF70FFFF70B504000368DA68DC
:100A1000D20608D55A69120700D489E01022DA609C
:100A20008025AD0000E0002523681A69D20607D5AD
:100A30005A69520604D58022D200154310221A6149
:100A400023685A69D2071FD59A685C490A408A42CE
:100A500009D09A685A490A408A4204D09A6859498A
:100A60000A408A4210D19A68920705D49A68920582
:100A700002D49B689B035DD52000FFF7C9FE226866
:100A80009168514B0B43936023685A69920702D5D2
:100A9000DB689B0752D123685A69D20602D51B69CD
:100AA0009B0750D1236C1D43256423689A69D207A4
:100AB00009D55A69D20506D55A69120403D5226CA4
:100AC00001210A4322649A69920709D55A6992055D
:100AD00006D55A69120403D5226C02210A43226406
:100AE0009A69520709D55A69520506D55A691204FE
:100AF00003D5226C04210A4322649A6970211142B1
:100B000037D05A69120534D55A69120431D599691A
:100B100070220A40302A30D01AD9502A32D0602AA6
:100B200035D0402A21D1226C40210A4322641CE0A6
:100B3000002579E780231B011D43A0E70021200049
:100B4000FFF794FEA7E701212000FFF78FFEA9E73A
:100B5000102A06D0202A08D1226C10210A432264D0
:100B600003E0226C08210A4322649A6970218A43B7
:100B70009A61236C002B10D170BD226C20210A4396
:100B80002264F2E7226C80210A432264EDE7216CA3
:100B9000802252000A432264E7E722685368042156
:100BA0000B43536001223D23E254226853690749F5
:100BB0000B405361200003F0FFFCDDE7010000045F
:100BC000000100080000011019050100A470FFFFDA
:100BD000006C704770B5002811DB8308144DC033DA
:100BE0009B005C5903221040C000FC321600864076
:100BF000B44389010A40824022435A5170BDC0B2B9
:100C00000F230340083B9B0806339B00094A944688
:100C100063445D6803221040C000FF24220082402C
:100C2000954389010C4084402C435C60E6E7C04654
:100C300000E100E000ED00E01F2318401E3B834070
:100C4000014A13607047C04600E100E01F231840CE
:100C50001E3B8340802201498B50704700E100E039
:100C600001380A4B98420FD8094A50600948036A74
:100C70001B021B0AC02109060B4303620023936079
:100C800007331360002070470120FCE7FFFFFF00DF
:100C900010E000E000ED00E0042805D0054A1368EC
:100CA00004218B4313607047024A136804210B43ED
:100CB0001360F8E710E000E0704710B5FFF7FCFFA5
:100CC00010BD000070B504000120002C28D00223C4
:100CD0002068A51CEB770268124BA1681A40636874
:100CE0000B43E1680B4321690B4361690B43A16925
:100CF0000B43E1690B43134303600B4B1421C018F2
:100D0000FFF728FA094B80002064E36300200123E9
:100D1000A062E06220636063A063E418EB77E07791
:100D200070BDC0460FC0FFFFF8FFFDBF00000240CE
:100D3000F0B5461CF57F0224012D26D00125F5775C
:100D40000519AC46ED7F0027EDB2012D29D166468D
:100D5000F477046887632668076CAE43BD4026605D
:100D6000C66B7560636043680568102B0FD1A26085
:100D7000E160C36A2268002B0CD00E23134323606A
:100D8000012300242A6813432B602000F0BDA160DA
:100D9000E260EEE70A2313430422236023689343AF
:100DA000EDE7F777F1E70E21036810B51A68046CD8
:100DB0008A431A6001221968914319601100A14009
:100DC000C36B5960831CDA7783180020D87710BD75
:100DD00070B5841CE37F022B04D004238363033BA0
:100DE000180070BD0E210368056C1A688A431A60EA
:100DF00001221968914319601100A940C36B596021
:100E0000E27700248318426BDC771300A242E7D01C
:100E100090472300E4E7F8B504273E00016CC26B5D
:100E20008E40156803681C682E420DD03C420BD0E2
:100E30001968890602D41968B9431960C36A5660F3
:100E4000002B19D0984717E002273E008E402E4213
:100E500013D03C4211D01968890606D40A241968B7
:100E6000A14319600121C319D97756600022431CA0
:100E7000DA77836A9342E5D1F8BD082637008F40C0
:100E80003D42F9D03442F7D00E251C68AC431C60BB
:100E900001231C008C405460821C8363D3770022A2
:100EA000C318DA77036BE5E710210C4B30B5D8682F
:100EB0000022084205D00A480232C4692243C261B6
:100EC0000A000420D968014205D00121044C0243E4
:100ED000E5692943E161DA6030BDC0460020024087
:100EE000C0040020054B01201A69120604D5002019
:100EF000034A5A60034A5A607047C04600200240C5
:100F000023016745AB89EFCD8023034A0020116997
:100F10000B4313617047C046002002408021064AFF
:100F20008900136901200B4004D118000349916026
:100F3000034991607047C046002002402301674585
:100F4000AB89EFCD034A0449136900200B401361BC
:100F50007047C04600200240FFFDFFFF70B504004F
:100F6000FFF7AEF901250600104B1A00D968294297
:100F70000FD12021D868084200D0D9601023D06852
:100F8000184002D1D3685B0708D5FFF78DFF012019
:100F900004E0611CEAD0002C01D1032070BDFFF7F2
:100FA0008FF9801B8442DFD2F7E7C0460020024061
:100FB0008023054A10B511699B010B431361034857
:100FC000FFF7CCFF10BDC0460020024050C3000018
:100FD00070B506001248FFF7C1FF00281FD1202579
:100FE000104B114CD86123690D482B4323614023DA
:100FF000226913432361FFF7B1FF2369AB432361E8
:1010000000280CD12369103D2B432361074BB6B256
:101010001E800348FFF7A2FF2369AB43236170BD25
:1010200050C30000C00400200020024000F8FF1F51
:10103000062270B5124CBB25E3691340022B03D086
:101040001135042B00D0223D0E48FFF787FF002802
:1010500014D120260C4BD86123690A4833432361FD
:101060004023226913432361FFF778FF2369B343C9
:101070002361002802D1E8B2FFF7AAFF70BDC04685
:101080000020024050C30000C0040020F7B5464CC9
:101090000500237E0220012B2DD02B6801382076FD
:1010A000034241D0AB68414E01936B68376A83427B
:1010B00022D13F48FFF752FF00281AD1E061FFF725
:1010C000B7FF002815D1019B32699F431023FFB25F
:1010D00013433361FF2F06D0364A13891F4017810F
:1010E0003348FFF73BFF10223369934333610028F5
:1010F0001AD000232376FEBD2D48FFF72FFF0028CE
:10110000F7D1E061FFF794FF0028F2D1019B32692B
:101110003B43DFB2102313433361FF2FE3D0254B52
:101120001A8917431F81DBE72B689B0704D5287BAF
:10113000FFF74EFF0028DCD12B685B0718D56B7BCF
:101140001B480193FFF70AFF0028D2D11027174E42
:10115000E0613369174A3B4333616B469B8814480F
:101160005380FFF7FBFE3369BB4333610028C0D1D6
:101170002B681B07BDD52B690D4801932E7DFFF70A
:10118000EDFE0028B5D11027084DE0612B69B6B2FD
:101190003B432B61019B06481E80FFF7DFFE2B6956
:1011A000BB432B61A5E7C046C004002000200240DD
:1011B00050C3000000F8FF1F072306210360084BFF
:1011C0001A6A8260DA690A40B531022A03D0113105
:1011D000042A00D022390173DB691B0A437370476C
:1011E00000200240F0B5C64600B582B000237BE087
:1011F000DF080837BF003E5807251D40AD000F240B
:10120000AC40A6430C69AC40250035433D507BE023
:10121000856864462540CE68BE4035438560456894
:101220002C004546AC434D682E09012535409D40B4
:101230002C434460C46865462C408D68BD402C43F7
:10124000C4604C68E4004ED5414DAE69012426438C
:10125000AE61AD692C400194019C9C08A51CAD00B9
:101260003C4EAE5903251D40AD000F27AF40BE4395
:101270009027FF05B84262D0374FB84261D0374F50
:10128000B8425AD00527AF403D0035430234A40090
:10129000304EA551324C2568D44326002E404F686D
:1012A000FF0301D515432E002D4D2E606D682E00D5
:1012B00026404F68BF0301D515432E00284D6E60B0
:1012C000AD682E0026404F68FF0201D515432E0061
:1012D000234DAE60ED682C404E68B60201D52A431E
:1012E00014001F4AD46001330A681400DC402AD07D
:1012F00001249C40A0462240F5D04D68022D00D12B
:1013000076E7122D00D173E706685F0003252C00F5
:10131000BC40E443A44626404C682540BD403543CC
:1013200005604D686E1E012E00D871E7112D00D1A9
:101330006EE7122D00D07DE76AE70227A3E70027BA
:10134000A1E701279FE702B004BC9046F0BDC0466C
:10135000001002400000014000040048000800485E
:1013600000040140002A01D1816270478161FCE7DD
:10137000436959404161704770B5041E24D0036829
:10138000124A1A600368124A1A60036842685A6077
:10139000036882689A60FEF793FF05002368DA68A5
:1013A000002A06D0FEF78CFF401B2728F6D9032021
:1013B00070BD1969E268914202D01A610020F7E716
:1013C000044A1A600020F3E70120F1E7CCCC0000CA
:1013D00055550000AAAA00000368024A1A600020BE
:1013E0007047C046AAAA000070B5041E58D0EA2370
:1013F000FF33C35C002B05D00322EA23FF33E25402
:10140000002218E00022E933FF33C25404F098FAB6
:10141000F2E7D100891A8B00E31819002931012065
:10142000087001390A7018002B30002101705963CF
:101430009963D963013260688242EAD3002214E0E2
:10144000D100891A8B00E3181D000A35FF350021F1
:101450002970013D2A70033529700935296004354A
:1014600029601D33FF33196001328242E8D34023E3
:1014700001222168CA5200222168CA5244212068F0
:1014800042520C3120684252064A2168CA521C3B23
:101490000022E254EA23FF330122E254002070BD0F
:1014A0000120FCE700BFFFFF016858228B5A034868
:1014B00003439BB28B5200207047C0460080FFFF61
:1014C000F4235B00C35C012B13D00122F4235B00E7
:1014D000C25400290AD17F329D3BFF3B0168CA52AA
:1014E0000022F4235B00C254002070472423C1541F
:1014F000F6E70220F9E7000070B54EB2002E65DB7A
:101500007F240C40E5002D1BAC000934FF34041986
:101510007F250D402570F60F6670E260E370F423BE
:101520005B00C35C012B00D175E10122F4235B0059
:10153000C254E378012B00D174E0002B4ED0022B73
:1015400059D0032B61D02278930001688C46634404
:101550001988B24D29400A43B1490A431A80A37A37
:10156000002B00D0B5E06378002B00D167E0016864
:101570005023CB5A2278D2009B185B188022D200CD
:1015800094466344A28801218A431A8023789B00F1
:101590000268944663441A88510603D52A40A1493B
:1015A0000A431A802278920003689C46624413889A
:1015B0009D490B4020214B409BB299490B4313801E
:1015C0000022F4235B00C254002070BD7F240C4035
:1015D000E5002D1BAC002834041999E723789B0003
:1015E0000268944663441A88904911408022920010
:1015F0000A431A80A7E723789B0002689446634455
:101600001A888A490A401A809DE723789B0002685D
:10161000944663441A8885491140C022D2000A4387
:101620001A8090E723789B000268944663441A88E6
:101630007E4911408022D2000A431A8083E7016864
:1016400050254B5B2278D2009B185B18784A944651
:101650006344A28801218A431A8001684B5B227887
:10166000D2009B185B18734A94466344E1683E2994
:1016700026D94A0992B2C90601D1013A92B2920220
:1016800092B26D490A431A8023789B0002689446FF
:1016900063441A88510404D560490A4067490A43E3
:1016A0001A8023789B000268944663441988644A30
:1016B0001140C02292015140594A0A431A807FE7E3
:1016C0004A0892B2C90701D5013292B292021A8039
:1016D000DAE723789B000268944663441A885949E4
:1016E0001140594A0A431A80016850268B5B2278C0
:1016F000D2009B185B188022D20094466344E28893
:1017000001218A431A800568AB5B2278D2009B18BE
:101710005B19474A9446634422898A431A80637856
:10172000002B3DD123789B000268944663441A88BD
:10173000510404D539490A4040490A431A802378A4
:101740009B000268944663441A88510604D53349C5
:101750000A4034490A431A8023789B000268944661
:1017600063441A882D4911402E4A0A431A80217871
:10177000890003689C4661440B88314A1A40C023A3
:101780009B015340264A13430B8023789B0001683A
:101790008C4663441988244C21400A431A800FE781
:1017A00023789B000268944663441A88510404D548
:1017B0001A490A4021490A431A8023789B0002688B
:1017C000944663441A88510604D514490A401549C1
:1017D0000A431A8023789B000268944663441A885F
:1017E0000E491140154A0A431A802178890003687E
:1017F0009C4661440B880C4A1340094A13430B80F2
:1018000023789B0001688C46634419880C4C214066
:101810000A431A80D4E60220D7E6C0460F0F000024
:101820008080FFFFC080FFFFBF8FFFFF8F89FFFF1A
:1018300004040000060400000080FFFF80C0FFFFDA
:101840008FBFFFFF0F0E00008081FFFF10B54AB26F
:10185000002A3ADB7F230B40DC00E41AA3000933A3
:10186000FF33C3187F2421401970D20F5A70F4221D
:101870005200825C012A00D1C1E00121F422520011
:1018800081549A7A002A41D15A78002A25D01A78B0
:10189000920001688C46624411884C0604D5594C6C
:1018A0002140594C214311801B789B0002689446CB
:1018B00063441A8855491140554A0A431A80002248
:1018C000F4235B00C254002010BD7F230B40DC00DA
:1018D000E41AA3002833C318C4E71A7892000168F9
:1018E0008C46624411884C0404D5464C2140494C36
:1018F000214311801B789B000268944663441A8838
:1019000045491140424A0A431A80D8E75A78002ACA
:101910003AD11A78920001688C46624411884C04CE
:1019200004D5384C21403B4C214311801A78920059
:1019300001688C46624411884C0604D5314C214024
:10194000314C214311801A78920001688C46624420
:1019500011882C4C0C402C49214311801C78A40088
:1019600002689446644422882B490A4028490A4365
:1019700022801B789B000268944663441A88234C9B
:101980002240114319809AE71A78920001688C4628
:10199000624411884C0404D51A4C21401D4C21434B
:1019A00011801A78920001688C46624411884C06B6
:1019B00004D5144C2140144C214311801A78920014
:1019C00001688C46624411880E4C0C401149214339
:1019D00011801C78A40002689446644422880B4954
:1019E0000A400B490A4322801B789B0002689446F8
:1019F00063441A88084C2240114319805FE7022093
:101A000062E7C0460F0F0000C080FFFFBF8FFFFFDF
:101A10008080FFFF80C0FFFF8FBFFFFF70B57F2476
:101A20002140CD006D1AAC00041925001935FF3591
:101A30002A6022001D32FF321360083500222A601E
:101A4000173D2A7022000932FF3211701534FF341D
:101A50002268934240D9CD006D1AAC0004191D34A0
:101A6000FF349B1A2360CC00641AA3001C00C31827
:101A70001333FF331B78002B41D105685033EB5AE9
:101A800004190934FF342478E4001B195B195E4CF7
:101A9000A44663443E2A29D95409A4B2D20601D1EE
:101AA000013CA4B2A402A4B2584A14431C800368A7
:101AB000CA00511A8A0080180930FF30027892005B
:101AC0009B181988524A1140C02292015140514A34
:101AD0000A431A80002070BDCC00641AA20082184C
:101AE0001D32FF32002414601A00BCE75408A4B26F
:101AF000D20701D50134A4B2A4021C80D7E7CC00E0
:101B0000641AA3001C00C3180A33FF331B78002B90
:101B100023D105685033EB5A04190934FF34247873
:101B2000E4001B195B193C4CA44663443E2A0BD9C4
:101B30005409A4B2D50601D1013CA4B2A402A4B2B6
:101B4000324D2C431C800AE05408A4B2D50701D5BD
:101B50000134A4B2A4021C8001E0012B24D0CC00EB
:101B6000641AA3001C00C3180A33FF331B78002B30
:101B700035D105685033EB5A04190934FF34247801
:101B8000E4001B195B19204CA44663443E2A1DD96E
:101B90005409A4B2D20601D1013CA4B2A402A4B259
:101BA0001A4A14431C8082E705684F33EB5ACE0073
:101BB000761AB40004190934FF342478E4001B19A0
:101BC0005B19154CA44663441A80C8E75408A4B2B4
:101BD000D20701D50134A4B2A4021C8067E7012B0F
:101BE00000D064E705684F33EB5ACE00761AB40094
:101BF00004190934FF342478E4001B195B19024CE2
:101C0000A44663441A8052E7060400000080FFFFE8
:101C10008FBFFFFF8080FFFF020400007F23194079
:101C2000CB00591A8B00C0182130FF300088704754
:101C300010B5F4235B00C35C012B4ED00122F423CA
:101C40005B00C2544CB2002C20DBCA00521A930035
:101C50000933FF33C31801229A707E321140197084
:101C6000E40F5C7000291AD1890003689C46614426
:101C70000A881B4B1A401B4B5A401B4B13430B80CB
:101C80000022F4235B00C254002010BD6A3BFF3BDE
:101C90000B40DA00D21A93002833C318DBE7002C7C
:101CA0000DD0890003689C4661440B880F4A13409D
:101CB000102253409BB20C4A13430B80E0E789008B
:101CC00003689C4661440A88094B1A4080235B01E3
:101CD0005A40054B13430B80D2E70220D5E7C0469C
:101CE000BFBFFFFF101000008080FFFFBF8FFFFF0E
:101CF0008FBFFFFF10B54AB2002A39DBCC00641A4F
:101D0000A3000933FF33C31800249C707F342140A3
:101D10001970D20F5A70F4225200825C012A4BD003
:101D20000121F422520081545A78002A28D01A78CE
:101D3000920001688C46624411884C0604D51F4C01
:101D400021401F4C214311801A78920003689C4661
:101D5000624413881B490B4030214B409BB21A4907
:101D60000B4313800022F4235B00C254002010BDFB
:101D70007F230B40DC00E41AA3002833C318C3E719
:101D80001A78920001688C46624411884C0404D58C
:101D90000A4C21400D4C214311801B789B000268A6
:101DA0009446634419880A4A1140C0229201514066
:101DB000054A0A431A80D5E70220D8E70F0F000032
:101DC000C080FFFFBF8FFFFF8080FFFF80C0FFFF4D
:101DD0008FBFFFFF10B501335B0812188020C000D1
:101DE000141807E00A784878000202432280023182
:101DF000013B0234002BF5D110BD0000F8B5050001
:101E00007F240C40E000001B810069188A63CB63CB
:101E100000220A640A00293201201070013A14706D
:101E20004F6BBB4233D9DB1BCB63E200121B930029
:101E30001A00EB1832331B78002B30D02868E200F0
:101E4000121B9300EB1828331B789A00825A520613
:101E500074D5E600361BB200AA1829321278002A7F
:101E60003BD15032825ADB00D3181818624B9C4683
:101E700060443E2F28D97B099BB2FA0601D1013B71
:101E80009BB29B029BB25D4A1343038027E0E100B3
:101E9000091B8A00AA180021D1631F00C5E7BFB241
:101EA000AE18B28D3B00B16B2868FFF793FF2A682C
:101EB0005023D35A28363178C9005B189B18504AF2
:101EC000944663441F8082E07B089BB2FA0701D5E9
:101ED00001339BB29B02038001E0012A24D0E2007F
:101EE000121B9300EB181A8EBBB2E100091B8E0087
:101EF000AE19B16B2868FFF76DFF29363378002BD8
:101F000055D0012B63D1E200121B9300EB1828334C
:101F10001B789B002A68944663441A88394911400B
:101F2000394A0A431A8052E04F32825ADB00D318F2
:101F30001818314B9C4660440780D0E7E600361BFA
:101F4000B200AA1829321278002A1ED15032825AC1
:101F5000DB00D31818182A4B9C4660443E2F0BD93F
:101F60007B099BB2FA0601D1013B9BB29B029BB25B
:101F7000224A134303800AE07B089BB2FA0701D58B
:101F800001339BB29B02038001E0012A05D0E200ED
:101F9000121B9300EB18DA8DA6E74F32825ADB0052
:101FA000D3181818164B9C4660440780EFE7E200F0
:101FB000121B9300EB1828331B789B002A68944669
:101FC00063441A880F491140104A0A431A802A684C
:101FD000E1000C1BA300ED1828352B789B00D218CC
:101FE00013880B490B4030214B409BB209490B43EE
:101FF00013800020F8BDC046060400000080FFFFEB
:10200000020400000F0F000080C0FFFFC080FFFF30
:10201000BF8FFFFF8080FFFF10B55C081018802283
:10202000D2009446604406E002880A70120A4A70A0
:10203000013C02300231002CF6D1DB0701D50388C8
:102040000B7010BDF0B583B00500002201AB1A8003
:10205000B5E10388A94A1340038029685023CB5A6D
:102060002822AA5CD2009B185B18A54A94466344B8
:102070001B889B059B0D2B64AA6B94466344AB6342
:102080000021280003F095FC2423EB5C002B00D1F9
:1020900095E1EB6B002B00D091E12422AB5C802119
:1020A00049420B43DBB2CC31286843520023AB5486
:1020B00085E15023C35A84225200AA5CD2009B18A7
:1020C0001B18904A944663441B889B059B0D2A006D
:1020D0000932FF3293612900ED31FF319288FFF719
:1020E0009BFF2A68138888490B401380280003F05F
:1020F00047FC64E1140092882169FFF78DFF236992
:10210000A26994466344236195E14B089BB2C907D9
:1021100001D501339BB29B021380A9E1A60080196F
:10212000028801AB1A801B881BB2002B31DB01AB8C
:102130001B881B0600D442E12B689C46664433880A
:102140006E4A13403380E200121B93001A00EB1812
:1021500032331B78002B00D0DCE028685033C35AA0
:10216000AA18110028310978C9005B181B186449A6
:102170008C4663441B889B059B0D136400D1F9E0DA
:10218000E200121B910069188A8D896BFFF722FE0D
:10219000F0E05D4B1A400280E200121B93001A002F
:1021A000EB181333FF331B78002B1DD128685033F5
:1021B000C35A1100AA180932FF321278D2009B18B4
:1021C0001B18504A944663441F88BF05BF0D34D086
:1021D0006B181A000D32FF3212881933FF33196859
:1021E0003B00FFF719FF28E02868E200121B93006C
:1021F000EB180933FF331B789A00825A520456D5E4
:102200005022825ADB00D3181B183D4A944663447F
:102210001F88BF05BF0D3BD1E200121B9300EB18D6
:102220000933FF331B789B002A68944663441A885D
:1022300036491140364A0A431A803900E200121B1F
:102240009300EB1818002130FF300268D2190260A9
:102250001A001932FF3210688446674417601D3334
:10226000FF331B68002B08D0E200121B90002818D7
:102270001530FF300268914234D2E200121B930005
:10228000EB180933FF331978280003F083FB4EE77E
:10229000E200121B9300EB181A000F32FF32128873
:1022A0001933FF3319683B00FFF7B6FEB4E750223D
:1022B000825ADB00D3181B18124A944663441F88C5
:1022C000BF05BF0DA8D0E200121B9300EB181A0047
:1022D0001132FF3212881933FF3319683B00FFF7C0
:1022E0009BFE99E7E100091B8A00AA180932FF3218
:1022F00011783A002800FFF791FB18E70F8FFFFFD6
:1023000002040000060400008F0F00000F0F000001
:10231000C080FFFF2868E200121B9300EB182833EF
:102320001B789A00825A520600D4B2E05022825A98
:10233000DB00D3181B186A4A944663441B889B052C
:102340009B0DE100091B8A001100AA181364002BE1
:1023500000D098E0E200121B9300EB1828331B78A2
:102360009B002A68944663441A885E4911405E4A7D
:102370000A431A8028685023C25AE100091B8B00C7
:10238000EB18190028310978C9005218121854495D
:102390008C46624412889205920D1A64996B8C46A1
:1023A00062449A63DB6B002B00D08CE0E3001C1BC3
:1023B000A300EB1828331978280003F0FAFA2868EC
:1023C0004423C35A9BB26A46D3801BB2002B00DB66
:1023D00083E06B46DC880F231C4000D09EE66B46F2
:1023E00006331B88DB0600D433E6028801AB1A8073
:1023F0001B881B0500D55CE601AB1B881BB2002BBC
:10240000DDDA0388394A1340038028685023C35A11
:1024100084225200AA5CD2009B181B18344A9446AE
:1024200063441B889B059B0D2A000932FF32936190
:10243000002B00D05EE60021280003F0ABFA2B68E9
:1024400050229A5A9A182A4B9C4662442B00093310
:10245000FF33D9683E2900D857E64B099BB2C9061D
:1024600001D1013B9BB29B029BB222490B431380DB
:1024700029680A88204B1A40C0239B015A401F4BF1
:1024800013430B809BE76918CA8D896BFFF7A2FC89
:1024900060E75022825ADB00D3181B18144A944676
:1024A00063441B889B059B0DE100091B8A001100FA
:1024B000AA181364002B00D14CE769180A8E896BA7
:1024C000FFF788FC46E7E1000C1BA10069182831E2
:1024D00009782800FFF792FC71E7002003B0F0BDF7
:1024E000020400000F0F000080C0FFFF8F0F0000EC
:1024F000060400000080FFFF8FBFFFFF8080FFFF0A
:1025000070B5040044230268D35A1BB2002B48DB89
:10251000236844229A5A520546D4236844229A5A80
:10252000520404D544215A5A354802405A5223686D
:1025300044229A5A920404D544215A5A31480240FE
:102540005A52236844229A5AD2043AD42368442225
:102550009A5A120515D544215A5A2B4802405A520C
:1025600020684022835A08252B439BB2835220685F
:10257000835A04252B439BB2835223685B5ADB04A6
:1025800031D5236844229A5A920530D423684422D4
:102590009A5AD20504D544215A5A1C4802405A522C
:1025A00070BDFFF74FFDB3E744215A5A1848024067
:1025B0005A52200003F011FA00212000FEF780FF9C
:1025C000ABE74022995A042081439952114B21686C
:1025D0008B52200003F020FA216844228B5A0E48C7
:1025E00003408B52B2E7200003F004FAC9E744210C
:1025F0005A5A0A4802405A52200003F0E7F9C5E748
:10260000FFBFFFFFFFDFFFFFFFF7FFFFFFFEFFFF43
:10261000FFFBFFFF00BDFFFFFFEFFFFFFFFDFFFF21
:1026200010B50C060FD57F242140CC00611A8C0018
:1026300028340019002A0DD001228272C3801B0C9D
:102640000381002010BDCC00611A8C000934FF34D6
:102650000019EFE782728380F3E7000070B5040091
:102660000368DB073BD5874B5A680C231340042BC8
:102670002DD0844B5A680C231340082B1ED063685E
:10268000012B52D0002B57D17E4B1A687E490A404D
:102690001A601A687D490A401A606368002B63D08B
:1026A000FDF70EFE0500774B1B689B0317D4FDF763
:1026B00007FE401B6428F6D90320E0E0714B5B68FD
:1026C000C02252021340802252029342D7D16D4B56
:1026D0001B689B0303D56368002B00D1CCE0236803
:1026E0009B0672D5674B5A680C2313400C2B50D0B5
:1026F000644B5A680C231340082B43D0236A002BE9
:1027000050D0604A516B80235B020B435363FDF74B
:10271000D7FD05005B4B5B6BDB0356D4FDF7D0FDAB
:10272000401B0228F6D90320A9E0564A11688023ED
:102730005B020B431360B0E7052B09D0514B1A68BD
:1027400051490A401A601A6850490A401A60A4E7C1
:102750004C4B19688022D2020A431A601968802201
:1027600052020A431A6098E7FDF7AAFD0500454B9F
:102770001B689B03B3D5FDF7A3FD401B6428F6D966
:1027800003207CE03F4B5B68C0225202134093421F
:10279000B4D13C4B5B6BDB0317D5236A012B14D000
:1027A00001206CE0374A536B37490B405363FDF708
:1027B00087FD0500334B5B6BDB0306D5FDF780FD22
:1027C000401B0228F6D9032059E0636A002B55D03C
:1027D0002C4A51680C220A40082A51D0022B12D0F0
:1027E000284A13682A490B401360FDF769FD04006D
:1027F000244B1B689B013DD5FDF762FD001B0228A1
:10280000F6D903203BE01F4A136821490B401360AF
:10281000FDF756FD05001B4B1B689B0106D5FDF718
:102820004FFD401B0228F6D9032028E0154BDA6A39
:102830000F218A43216B0A43DA625A6815490A401C
:10284000E16AA06A01430A435A601968802252046F
:102850000A431A60FDF734FD04000A4B1B689B0114
:1028600006D4FDF72DFD001B0228F6D9032006E053
:10287000002004E0002002E0012000E0002070BD04
:102880000120FCE700100240FFFFFEFFFFFFFBFFFF
:10289000FFFFFFFEFF7FC2FF30B589B004AA1F4BC8
:1028A000180032C832C2110002680A606A4610334A
:1028B00013CB13C21B681360194B5A680C231340C7
:1028C000082B04D00C2B26D0164809B030BD910C33
:1028D0000F23194004A8445C1149C96A0B4069469A
:1028E000C95CC0235B021A4080235B029A4208D075
:1028F000C0235B029A4209D00A48FDF72BFC6043D3
:10290000E3E70848FDF726FC6043DEE70648FDF7ED
:1029100021FC6043D9E70448D7E7C046F45D0008CE
:102920000010024000127A00006CDC0270B5050055
:102930000C00594B1A68012313408B420BD25649A5
:102940000B680122934323430B600B681A409442A7
:1029500001D001209DE02B689B0706D54F4A5368A4
:10296000F0218B43A9680B4353602B68DB0764D5C8
:102970006B68012B25D0022B29D0032B2DD0474A81
:102980001268920700D485E044494A6803208243D4
:1029900013434B60FDF794FC06006B68012B22D0BB
:1029A000022B2ED0032B3AD03C4B5B680C221A42F0
:1029B00043D0FDF785FC801B394B9842F4D90320A6
:1029C00067E0364A12689203DED4012061E0334AA0
:1029D00012689201D8D401205BE0304A526BD203D6
:1029E000D2D4012055E02D4B5A680C231340042B00
:1029F00023D0FDF765FC801B294B9842F3D90320B7
:102A000047E0264B5A680C231340082B15D0FDF7DE
:102A100057FC801B224B9842F3D9032039E01F4B0F
:102A20005A680C2313400C2B07D0FDF749FC801B80
:102A30001B4B9842F3D903202BE0174B1A68012354
:102A400013409C420BD214490B6801229343234349
:102A50000B600B681A40944201D0012019E02B68EA
:102A60005B0706D50D4A53680E490B40E9680B43D6
:102A70005360FFF711FF094B5A6812090F231340E7
:102A8000094AD35CD840094B18600020FDF7EEFBE3
:102A9000002070BD0120FCE7002002400010024031
:102AA00088130000FFF8FFFF3460000818010020C1
:102AB000014B18687047C0461801002010B5FFF799
:102AC000F7FF044B5A68120A07231340024AD35CEB
:102AD000D84010BD001002404460000870B582B0BC
:102AE00004000368DB0335D5464BDB69DB005CD4AF
:102AF000444AD169802040050143D161D369034034
:102B00000193019B0125404B1B68DB054FD53D4BD5
:102B10001B6AC0229200134013D061680A4093429E
:102B20000FD0384B186A394A02401E6A8021490288
:102B300031431962196A364E314019621A62C3076D
:102B400049D4304A136A31490B4061680B43136220
:102B5000012D4FD02368DB0706D52A4A136B0321CA
:102B60008B43A1680B43136323689B0606D5254A54
:102B7000136B10218B43E1680B43136323689B03A2
:102B800006D5204A136B80218B4361690B43136385
:102B900023685B0533D51B4A136B40218B432169A6
:102BA0000B431363002002B070BD0025ABE7164A4B
:102BB000116880235B000B431360FDF781FB060067
:102BC000114B1B68DB05A2D4FDF77AFB801B642840
:102BD000F6D90320E7E7FDF773FB0600094B1B6AF4
:102BE0009B07AED4FDF76CFB801B0A4B9842F5D9CE
:102BF0000320D8E7D36908490B40D361AAE7002036
:102C0000D1E7C0460010024000700040FFFCFFFF0B
:102C1000FFFFFEFF88130000FFFFFFEFF8B506007F
:102C20000C0017001D003EE0002D05D0FDF748FB0D
:102C3000069BC01A854236D832685368E0218B4320
:102C4000536082235B0072689A420CD080239B0100
:102C5000B26A9A4216D001225D23F2540022013B4F
:102C6000F254032027E0B36880221202934203D07B
:102C70008022D2009342E9D13268136840218B430D
:102C80001360E3E7326813680B490B401360326846
:102C9000116880239B010B431360DCE70123BB42D7
:102CA00008D06B1CC0D133689B6823409C42F5D090
:102CB0000023F4E70020F8BDFFDFFFFFF0B583B08D
:102CC00007000C0015001E0001E0731C10D13A68CB
:102CD00093682340AB4245D0C023DB009C42F4D133
:102CE000002DF2D1137BDBB26A46D371D379ECE7C6
:102CF000002E05D0FDF7E4FA089BC01A8642E6D8FC
:102D00003A685368E0218B43536082235B007A6802
:102D10009A420CD080239B01BA6A9A4216D00122B3
:102D20005D23FA540022013BFA5403201BE0BB68E8
:102D300080221202934203D08022D2009342E9D132
:102D40003A68136840218B431360E3E73A681368DD
:102D500006490B4013603A68116880239B010B43BE
:102D60001360DCE7002003B0F0BDC046FFDFFFFFCB
:102D700070B582B004000D00160000920B00002216
:102D8000C0214901FFF79AFF002806D0236E2022B8
:102D900013432366032002B070BD00962B0000226F
:102DA00080212000FFF73AFF002805D0236E202263
:102DB000134323660320EEE700962B000022C02178
:102DC000C9002000FFF77AFF0028E4D0236E2022FC
:102DD000134323660320DEE770B5041E5ED0002394
:102DE00083625D33C35C002B4CD002225D23E2542E
:102DF0002268136840218B431360E368E022D2000D
:102E0000934245D90021F0221201934205D0E022DD
:102E1000D200934201D00022A262226B002A05D187
:102E2000E022D200934236D90223236322686368EA
:102E3000A068034320690343606903438020800046
:102E4000A56928400343E0690343206A0343A06A5D
:102E5000034313602268608B04230340606A0343CA
:102E6000606B0343E06803430B4353602268D369FC
:102E70000B490B40D3610023236601225D33E254EA
:102E8000002070BD00225C33C25402F0FFFBACE7AF
:102E900080214901B7E701232363C7E70120F0E759
:102EA000FFF7FFFF10B504005C23C35C012B00D1CA
:102EB0007CE001205C23E0540133E35C012B04D06F
:102EC000022000225C23E25410BD00296AD0002AAF
:102ED0006AD002305C33E05400232366A163A287EA
:102EE000E28723642365E3644422A3520232A3529F
:102EF00080231B02A2689A4237D0636D2C4ADA62A3
:102F0000636D2C4A9A62636D2B4A1A63636D0022CB
:102F10005A632268536829490B405360E023DB0061
:102F2000E2689A4205D8636D5A698023DB009A42B1
:102F300022D022680C32E38F9BB2A16B606DFDF74B
:102F4000F7FE23681A68520603D41A6840210A4320
:102F50001A602268536820210B435360226853682B
:102F60001E390B4353600020ABE7226811688023B1
:102F7000DB010B431360C0E7E38FDB0707D4226854
:102F800053680B405360E38F5B08E387D1E7226807
:102F900051688023DB010B435360E38F5B080133EF
:102FA000E387C6E701208CE701208AE702208BE750
:102FB000C32F0008EF2F0008CD2F0008FFBFFFFF31
:102FC000704710B5406AFFF7FBFF10BD10B5406AAF
:102FD0000268536803218B435360036E102213432E
:102FE00003660F3A5D23C25401F002FB10BD30B5F9
:102FF00083B00500446AFDF763F92B681B689B06E4
:1030000026D42268536820218B435360226853687A
:103010001E398B435360020062312000FFF7A8FE87
:10302000002803D0236E202213432366A368002BBD
:1030300006D101932368DA6801929B680193019B92
:103040000023E38701225D33E254236E002B04D179
:10305000200001F095FA03B030BD200001F0C8FA5D
:10306000F9E7000030B585B00400016848688B6856
:1030700041221A40012A58D09A0701D502065AD493
:10308000B0225200134259D0820657D55A060ED5A7
:103090005D22A25C032A53D0226E04252A432266B5
:1030A00000220092CA6800928A680092009A9A06EA
:1030B0000CD5226E01252A432266002202928A68DC
:1030C00002920A683F35AA430A60029ADB0509D5D5
:1030D000236E0822134323660023039323689B680F
:1030E0000393039B236E002B28D022685368E021B2
:1030F0008B43536001225D23E254830728D022686A
:103100005368DD398B435360A36D002B04D0124A02
:103110005A63A06DFDF75CFE636D002B0ED00E4A66
:103120005A63606DFDF754FE08E04206A4D5E36CD7
:103130002000984702E0236D2000984705B030BD7D
:1031400000230193CB6801938B680193019BF5E702
:10315000200001F04DFAF1E75D31000810B5406A3A
:10316000002346228352C38701F042FA10BD0000BB
:10317000036806491A686A300A401A609A6823315F
:10318000FF318A439A60202303707047DFFEFFFF00
:103190001300020070B56932147805000220202C5B
:1031A00034D10138002931D0002B2FD08024AE68D3
:1031B0006401A64204D12C69002C01D1014225D121
:1031C0002E00683634780220012C1FD00138307070
:1031D00028005030E9640024038043802120EC66FD
:1031E0001070286E0A4A446382620A4AC2620A4A1E
:1031F00002632A682832FDF79BFD402220002B68DD
:103200001A62996892180A4334709A6070BDC04679
:103210001D3300084F330008A9330008F8B5130028
:1032200002006A32147805000220202C3CD10138BB
:10323000002939D0002B37D08024AE686401A64223
:1032400004D12C69002C01D101422DD12E00683609
:1032500034780220012C27D02800012758303770FD
:103260000024696503802220EC661070686E0F4AA6
:10327000446382620E4AC2620E4A02632A682432A2
:1032800094460A006146FDF753FD80222B685200E8
:10329000196834700A431A609A6820001743402264
:1032A0009F6099680A439A60F8BDC0465933000888
:1032B0009F330008A933000870B5050069352B78E5
:1032C0000400212B13D1802103689A680A420ED092
:1032D0009A68006E8A439A60002801D0FDF763FD6A
:1032E000C021226813688B43136020232B702300B6
:1032F0006A331B78222B0FD1402123689A680A4237
:103300000AD09A68606E8A439A60002801D0FDF75F
:103310004AFD2000FFF72CFF002070BD202103682C
:1033200010B51B68426A0B400CD1110052310B8062
:10333000802113689A688A439A60402219680A4378
:103340001A6010BD100001F023F9FAE7704710B5BC
:10335000406AFFF7FBFF10BD0368426A20201B682C
:1033600010B5034013D111005A310B8013680A4C79
:1033700019682140196099680334FF34A1439960AA
:1033800099683F34A143996013006A3318701000A4
:1033900001F020F910BDC046FFFEFFFF704710B5D9
:1033A000406AFFF7FBFF10BD10B5446A2100693188
:1033B0000B78212B0DD123689A68120609D52200BB
:1033C0000020523210801A68C03082431A602023D5
:1033D0000B7023006A331B78222B0AD123689B6869
:1033E0005B0606D5230000225A331A802000FFF71F
:1033F000BFFE1023E26E20001343E36601F0CAF81B
:1034000010BD406A0023020010B55A321380083AFA
:10341000138001F0BFF810BD70B504000568C269E3
:10342000836800692968034360693F4E03433F484E
:10343000134301400B432B606B683D49206A0B40EE
:10344000E1680B436B60A369A968034339480140F5
:103450000B43AB6080231B02B54210D103203649D9
:10346000096B01403548405C9A4213D0082858D86F
:10347000FCF766FE375742574B57575750003049B5
:103480008D424CD19A422CD1FFF718FB6368400063
:103490005B080BE0082821D8FCF748FEF620052041
:1034A000182020201B0063685808264BC01861684C
:1034B000FCF750FE83B200200F22190091430A004E
:1034C0001B0721685B0F1343CB6070BDFFF7E4F966
:1034D000DCE76368580880235B02E7E701200023EC
:1034E000EAE7FFF7EBFA61684B081818FCF732FEC1
:1034F00080B2E8600020E8E76168134B4808C01814
:10350000FCF728FE80B2F060F4E7FFF7C5F96168C8
:103510004B08F4E7802361681B024808EFE79A42F2
:10352000DCD00120D1E7C04600380140F369FFEF4D
:10353000FFCFFFFFFFF4FFFF00100240145E000802
:10354000004400400024F40000127A00436A30B5C1
:10355000DA0706D50168284C4A682240846A22436B
:103560004A609A0706D50168244C4A682240C46A1A
:1035700022434A605A0706D50168214C4A68224016
:10358000046B22434A601A0706D501681D4C4A683D
:103590002240446B22434A60DA0606D501681A4C81
:1035A0008A682240846B22438A609A0606D50168A5
:1035B000164C8A682240C46B22438A605A0610D592
:1035C0000168134D4A68046C2A4022434A608022F5
:1035D0005203944205D14A680E4C2240446C224367
:1035E0004A601B0606D502680B4953680B40816C84
:1035F0000B43536030BDC046FFFFFDFFFFFFFEFFE2
:10360000FFFFFBFFFF7FFFFFFFEFFFFFFFDFFFFF7E
:10361000FFFFEFFFFFFF9FFFFFFFF7FFF8B504007D
:103620000E0015001F002268D36933409B1B5942CE
:103630004B41AB4201D0002018E0069B0133F3D090
:10364000069B002B13D123680C491A6803200A40FB
:103650001A609A68A331FF318A439A6022002023BE
:10366000693213705370002368342370F8BDFCF77F
:1036700027FE069BC01B8342D5D2E4E75FFEFFFF17
:1036800073B500260400C666FCF71AFE164A2368C6
:103690000500934208D022002023002069326834BC
:1036A00013705370207076BD1B681B070FD42368FE
:1036B0001B685B07EFD580210C4B00220093C903E8
:1036C0002B002000FFF7AAFF00280BD1E3E78021A1
:1036D000064B32000093890303002000FFF79EFF92
:1036E0000028E4D00320DEE700380140FFFFFF019F
:1036F00070B5041E01D1012070BD050069352B781D
:10370000DBB2002B04D102006832137001F05CFFC1
:103710002423012122682B70136820008B4313603F
:10372000FFF77AFE0128E6D0636A002B02D0200062
:10373000FFF70CFF236808495A6820000A402A2135
:103740005A609A688A439A60012219680A431A608B
:10375000FFF796FFD0E7C046FFB7FFFF030030B585
:1037600069331B7802000220212B0FD11400523440
:10377000238811689BB2002B09D10A687E308243EE
:103780000A604022086802430A60002030BD8020A1
:1037900095684001D36C85420DD1106900280AD18B
:1037A00018880233C005C00D0885D3642388013B07
:1037B0009BB22380E9E7581CD0641B780B85F5E7A2
:1037C0004021026810B513688B4313600300202268
:1037D00069331A7000F0DCFE002010BD020070B5E5
:1037E0006A321178036822292DD1010080245C31CE
:1037F0000D88998C640129408568436DA5421ED1CE
:103800000469002C1BD11980023343650100002498
:103810005A310B88013B9BB20B80A3420DD1036848
:103820000C4D19682940196099682335FF35A94363
:1038300099602023137000F0CDFE200070BD5C1C49
:1038400044651970E2E70822996902240A439A61E3
:10385000F3E7C046DFFEFFFF0F210268F8B5D3692A
:1038600004001940106808D120252B4205D02842B9
:1038700003D02000FFF7B2FFF8BD9668002961D0A1
:10388000012135000D4003D190277F00384259D0E7
:103890000B4205D0C60503D51162E66E3143E166E1
:1038A00002210B4206D0002D04D01162E66E4918A9
:1038B0003143E16604210B4206D0002D04D0116291
:1038C000E66E02393143E166190708D5810601D455
:1038D000002D04D008211162E26E1143E166E26E10
:1038E000002AC9D02022134204D0104202D0200066
:1038F000FFF774FFE36E20001B0704D423689D6864
:1039000040231D401AD0FFF733FC402123689A68FA
:103910000A420FD09A68606E8A439A60002809D0E4
:103920001A4B4363FDF754FA0028A5D0606E436B31
:103930009847A1E7200000F02DFE9DE700F02AFE49
:10394000E56699E7802149030B420BD0750209D542
:10395000116222002023693213702000537000F09E
:1039600017F889E78022134205D0104203D02000C7
:10397000FFF7F4FE80E74022134200D17CE71042BB
:1039800000D179E72000FFF71BFF75E7033400083B
:10399000704786239B00C358002B05D00021852249
:1039A00092009950002070470220FCE710B5862352
:1039B0009B00C4580433C358002B0DD080229200C2
:1039C000A05CFF2808D09B68044AA25C21009847AD
:1039D000FF2280239B00E254002010BD0102000062
:1039E00043230380004870473800002043230380AE
:1039F000004870477C000020432303800048704744
:103A0000CC0000200A23038000487047C00000203B
:103A100070B504008626B600855902F0F8F88323B5
:103A20009B00E850A359002B0BD087239B00E35841
:103A3000DB6883229200A918083AA858984700200A
:103A400070BD0220FCE7000070B505000C00862365
:103A50009B00C6580978B93BFF3B0B4029D0202B6F
:103A60002AD1E288002A1BD049B200290BDB6278F8
:103A700080239B00F254E288134BF254E288310019
:103A800000F01EFD18E0FD33FF33C3589B686078DB
:103A900031009847E2883100280000F0FBFC0BE081
:103AA00087239B00C3589B686078002221009847B9
:103AB00002E063780A2B01D0002070BD0122034987
:103AC00000F0E8FCF8E7C046010200007C0100209D
:103AD00070B50400812102F020F80121200002F0DD
:103AE0001CF88221200002F018F886239B00E3587E
:103AF000002B0BD087239B00E3585B6898478625F3
:103B0000AD00605902F08EF800236351002070BDB3
:103B100070B50400037C002B34D18025AD002B0050
:103B20000222812101F0E6FF2B0002220121200068
:103B300001F0E0FF082303228221200001F0DAFFD8
:103B40008720800002F06AF8050086239B00E05081
:103B500000282DD00433E3581B68984700238522A2
:103B60009200AB500432AB50237C002B16D0812343
:103B70009B00EA58C53BFF3B0121200002F037F8CB
:103B8000002070BD40230222812101F0B3FF4023B9
:103B900002220121200001F0ADFFCBE781239B0031
:103BA000EA58043B0121200002F021F80020E8E758
:103BB0000120E6E7002904D087239B00C1500020A4
:103BC00070470220FCE786239B00C35882208000B8
:103BD0001950842189005A500020704786239B0089
:103BE000C258143BD1500020704710B586239B006B
:103BF000C258002A14D0043BD358002B01D0012016
:103C000010BD012185239B00D150043BD35A822152
:103C1000890052588839FF3901F0D9FF0020EFE7B9
:103C20000220EDE710B586239B00C358002B15D06A
:103C3000027C002A08D0812292009A584023012158
:103C400001F0D5FF002010BD812292009A588023F8
:103C50009B00012101F0CBFF0020F4E70220F2E7F6
:103C600010B5002816D085239B00C358002B03D025
:103C7000002485239B00C450002902D084239B008C
:103C8000C1500121FE235B00C154027001F0DAFE35
:103C9000002010BD0220FCE7002904D085239B00F2
:103CA000C150002070470220FCE710B501F012FF60
:103CB000002010BD10B585239B00C358002B05D0F4
:103CC0001B689847002803D0022000E0022010BDA6
:103CD0000020FCE710B585239B00C3585B6898471C
:103CE000002010BD70B5040082239B00C518280079
:103CF00000F02FF90122FA235B00E250124BE25A46
:103D0000163BE2501033E15CEA3BFF3B0B40012BDA
:103D10000FD0002B07D0022B10D07F239943200017
:103D200001F00BFF03E02900200000F0B7FA0020AB
:103D300070BD2900200000F0D5FAF8E72900200026
:103D400000F0EEFAF3E7C0460E02000010B50400E2
:103D50001300002928D1FA2252008258032A2ED1BA
:103D6000421DFF329168D26891420ED885239B0094
:103D7000C3581B69002B04D0FE225200825C032A28
:103D800010D0200000F0B4FB19E0891A0530FF3094
:103D900081608A4200D90A0092B21900200000F026
:103DA0009FFB0CE09847ECE785239B00C3589B6979
:103DB000002B04D0FE225200825C032A01D0002096
:103DC00010BD9847FBE770B50400130000294FD1E0
:103DD000FA2252008258022A06D080239B00E35C1C
:103DE000012B40D0002070BDC269056AAA421CD8D0
:103DF000866929003000FCF733FA002906D1B54264
:103E000004D8FC235B00E3589E421BD385239B0010
:103E1000E358DB68002B04D0FE225200A25C032A88
:103E20001ED0200000F070FBD7E7521BC26192B297
:103E3000190000F03DFB002300220021200001F0CA
:103E4000D6FECAE70022200000F032FB0022FC234D
:103E50005B00E25000230021200001F0C8FEBCE717
:103E600020009847DDE7002280239B00E254B9E759
:103E700085239B00C3585B69002BB3D0FE22520000
:103E8000825C032AAED19847ACE770B504004023AA
:103E90000022002101F02EFE402588235B00E55022
:103EA000D03B00228021200001F024FE2562012267
:103EB000FE235B00E2541C33E358002B06D085231D
:103EC0009B00E3585B68217920009847002070BD73
:103ED000017400207047FE235B00C15CFE22FF32AC
:103EE0008154FA3AFF3AC25400207047FE23FF3350
:103EF000C25C013BC2540020704710B5FE235B003A
:103F0000C35C032B01D0002010BD85239B00C35848
:103F1000DB69002BF7D09847F5E70300002002E0AB
:103F20000130C0B201331A78002AF9D1704710B5B8
:103F300004004B88012B00D010BD012281239B007F
:103F4000C2501033C3589B689847200000F0D0FA45
:103F5000F2E70B7803704B7843708B78CA781202C3
:103F60009B1843800B794A7912029B1883808B79C6
:103F7000CA7912029B18C380704710B504008021D3
:103F800001F0DBFD0021200001F0D7FD10BD000095
:103F900030B583B004000D004A88130A072B00D9FE
:103FA0008EE09B004F49CB589F4684239B00C3580B
:103FB0001B68007C6A46911D98476B4606331B8838
:103FC000002B03D0EA88002A00D07EE003B030BD89
:103FD000037C002B09D185239B00C3589B6A6A464A
:103FE000901D984702234370E7E785239B00C35841
:103FF000DB6A6A46901D984702234370DDE7D2B220
:10400000052A39D89200384B9B589F4684239B0041
:10401000C3585B68007C6A46911D9847CDE78423AE
:104020009B00C3589B68007C6A46911D9847C4E773
:1040300084239B00C358DB68007C6A46911D984727
:10404000BBE784239B00C3581B69007C6A46911D13
:104050009847B2E784239B00C3585B69007C6A469B
:10406000911D9847A9E784239B00C3589B69007C56
:104070006A46911D9847A0E72900FFF77EFFA5E754
:10408000037C002B07D185239B00C3585B6B6A46DA
:10409000901D984791E72900FFF76FFF96E7037C93
:1040A000002B09D185239B00C3581B6B6A46901DCA
:1040B00098470723437080E72900FFF75EFF85E7F5
:1040C00029002000FFF759FF80E7191C934200D90F
:1040D000111C8AB26B46D9800100200000F0DAF989
:1040E00074E7C046185E0008385E000870B504002A
:1040F0008B88002B22D1CB88002B1FD18B787F257A
:104100001D40FE235B00C35C032B0FD0FF235B002D
:10411000C554290001F04BFD200000F0E9F9002D05
:1041200007D00222FE235B00E2540AE0FFF725FFDE
:1041300007E00122FE235B00E25402E02000FFF7CB
:104140001CFF70BD70B504000D008978284B1970F4
:1041500001290AD8FE235B00C35C022B09D0032B84
:104160001ED02900FFF709FF02E02900FFF705FF35
:1041700070BD002911D041600322FE235B00C254B0
:10418000FFF798FD022803D0200000F0B1F9EFE717
:1041900029002000FFF7F1FEEAE700F0A9F9E7E7C0
:1041A000002911D0436899421ED0D9B2FFF792FD81
:1041B0000F4B197861602000FFF77CFD02280ED0BC
:1041C000200000F095F9D3E70222FE235B00C254E1
:1041D0004160FFF77FFD200000F08AF9C8E7290061
:1041E0002000FFF7CAFEC3E700F082F9C0E7C0462F
:1041F0007D01002010B5CB88012B09D1FE235B0087
:10420000C35C022B07D0032B0DD0FFF7B6FE01E0F5
:10421000FFF7B3FE10BD00238360010008310122C7
:1042200000F038F9F6E7011D012200F033F9F1E75B
:1042300010B5FE235B00C35C023BDBB2012B0ED842
:104240000123C36081239B00C358002B01D00323AB
:10425000C36001000C31022200F01CF910BDFFF711
:104260008CFEFBE710B50400FE235B00C35C023B41
:10427000DBB2012B0FD84B88012B00D010BD0022E0
:1042800081239B00C2501033C3589B68984720007D
:1042900000F02EF9F2E7FFF770FEEFE710B54B786C
:1042A000092B19D89B000E4AD3589F46FFF770FE82
:1042B000002010BDFFF71AFFFAE7FFF743FFF7E70B
:1042C000FFF798FFF4E7FFF7B3FFF1E7FFF72FFEE3
:1042D000EEE7FFF7C7FFEBE7FFF74FFEE8E7C04663
:1042E000505E000870B504000D00FE235B00C35C47
:1042F000032B12D10B79012B03D9FFF73EFE0020CF
:1043000070BD85239B00C3589B689847EB88002BA2
:10431000F5D1200000F0ECF8F1E7FFF72EFEEEE714
:1043200070B505000C008A88D1B220786023034064
:10433000202B12D06378012B35D0002B5BD0032BC0
:1043400012D1FA33FF33EB5C022B0FD0032B15D0C5
:1043500021002800FFF711FE06E0F533FF33EB588C
:104360009B68210028009847002070BD0029FBD0E1
:104370008029F9D0280001F0E0FBF5E76388002BE5
:1043800006D1002904D0802902D0280001F0D5FBF5
:1043900085239B00EB589B68210028009847280044
:1043A00000F0A6F8E0E7FE235B00EB5C022B06D0F2
:1043B000032B0CD021002800FFF7DFFDD4E70029F4
:1043C000D2D08029D0D0280001F0B7FBCCE7638899
:1043D000002BC9D14B0603D1280000F089F8C3E7B0
:1043E000280001F0BAFB85239B00EB589B68210055
:1043F00028009847F0E7FE235B00EB5C022B06D019
:10440000032B0AD021002800FFF7B7FDACE74B06CD
:10441000AAD0280001F091FBA6E7130612D47F244E
:104420000C40103424012C190434280001F0A5FBA1
:1044300000280ED00123236002222100280000F072
:1044400029F891E77F240C40013424012C1904340D
:10445000EBE700232360EFE770B504000D001600C2
:10446000002816D0FFF759FD431C5B009BB2338038
:104470002B7003236B70013B08E05A1CD2B201344D
:10448000E9540233DBB2AA18002111702178002907
:10449000F3D170BD10B513000224FA2252008450EB
:1044A0008361C3610A00002101F091FB002010BD6F
:1044B00010B513000A00002101F089FB002010BD97
:1044C00010B513000324FA2252008450EC3A8350B2
:1044D000043283500A00002101F089FB002010BD46
:1044E00010B513000A00002101F081FB002010BD6F
:1044F00010B50422FA235B00C250002300220021E1
:1045000001F065FB002010BD10B50522FA235B0009
:10451000C25000230022002101F069FB002010BDE1
:1045200000B587B06846FCF747FE04230093733359
:104530006A465373FCF7D6FCFCF7F0FCFCF778FDF9
:104540006846FCF7A3FDFCF7FDFCFCF7DDFCFCF77F
:104550002FFD07B000BD00001F2110B5054B1E2226
:104560001B7805485943054B0131C918FEF756FE23
:1045700010BDC0467E010020A80600205C07002078
:1045800010B501210148FCF7F3FE10BD00040048FE
:10459000C36E70471F2110B5C36E054B1E221B78DA
:1045A0005943044B0131C918FEF738FE10BDC0460F
:1045B0007E0100205C07002010B50021FCF7A2F866
:1045C00010BD00000123024A11780B43137070479D
:1045D000240500200122044B1A70044A1378594222
:1045E0004B4113707047C0468C0100207E010020B3
:1045F000C046704710B50549FBF786FD002804D179
:104600000123034A11680B43136010BD865E000846
:1046100080010020292300B599B00B93283B139308
:104620000C9312930133149380235B03169380231E
:104630005B02159300230BA81793FEF70FF80028D1
:1046400004D0BB211B484900FFF7D4FF0723019387
:10465000053B02930023012101A803930493FEF775
:1046600065F9002804D0C22112484900FFF7C2FFB3
:1046700080239B020593002305A80A93FEF72EFAD8
:10468000002804D0C6210B484900FFF7B3FFFEF70E
:104690000FFAFA218900FBF75DFDFCF7E1FA04202F
:1046A000FCF7FAFA0222012011004042FCF792FACC
:1046B00019B000BD785E0008EF4BF0B51B688FB0F5
:1046C0001A68162312021343EC4AED4C1360FBF7F1
:1046D000DFFDFFF79FFF8021626989020A43626163
:1046E000636982250B408021002601270793079BE1
:1046F0006269C9020A4362616369ED000B400022EE
:1047000029000893DF48089BFCF72CFE09A9DD4827
:1047100009950A970B960C96FCF764FD0323D9487C
:1047200009A90C9309970A970B96FCF75BFDD64DE8
:10473000D64B28002B6003236B6080235B04EB6067
:10474000A0231B032B61C0239B03AE606B61AE6192
:10475000EF612E626F62AE62EE62FBF757FEB0420F
:1047600003D03100CA48FFF745FF012162690A20E2
:104770000A43626102226369C64E0B40099311002D
:10478000099BFCF727FA0A20FCF756FA00220B20B7
:104790001100FCF71FFA0B20FCF74EFA0C22BE4F5B
:1047A000BE4B7A61F432BA6180227B600023120230
:1047B00038003E60BB60FB603B61FA613B62FEF724
:1047C00097FF002804D0EA21B5484900FFF712FFFF
:1047D000E022B44CB44BD20023608223E260022278
:1047E0005B00636000232261FF32FF32A261D93A8D
:1047F000FF3AA3606361E26123626362A362213ACC
:10480000236320000833E2626363FEF7E5FA0028C1
:1048100004D08A21A2488900FFF7ECFE01F00AF8D3
:10482000A248A34B036004234360A24BC360836090
:10483000FCF7A2FD002804D0DE2199484900FFF7CB
:10484000D9FE00229C4B2B639C4B6B639C4B1A70D4
:1048500000F080FD02221E201100FCF7BBF92800A9
:1048600001250021FBF74EFF33682800AB4333607E
:104870001023726813437360D02372681B051343BF
:10488000736080233268DB01134320223360336876
:1048900093433360FBF71AFD33681E221D433560D6
:1048A0001F25884B38001978874B69430131C91897
:1048B000FEF7B4FCC02285492000FEF7F3FA00227F
:1048C0001C201100FCF786F98022814B52051A60EA
:1048D00000F036FA0023019500937E4B794E1B7849
:1048E000794C002B08D13178019B1E2259430131AC
:1048F00061186948FEF792FC764B1B78002B4BD071
:10490000337801995943625C92074DD5624F01316A
:1049100061181E223800FEF781FC02213578019AC9
:104920006A43A35C8B43A35468426841019B58438C
:104930000130201800F054FA33781E225D425D41A8
:10494000019B00215D43681C201801F03EFA022201
:10495000635D61481343635508233A6800259169F4
:104960000B439361102391690B439361594B1D7065
:1049700000F076FA07280FD13800FEF79DFC019B66
:1049800036781E225E43701C2018290001F01DFAA3
:104990000222A35D1343A3554A4B01991B784A4A4F
:1049A00059438A5C92070CD4019C474D5C43601CC0
:1049B0001E224019002101F008FA0223625D134310
:1049C0006355FE23454A5B00D35C032B02D042486B
:1049D00000F046FA3A4D2B78002B10D0404B0233B2
:1049E000DC7FE4B2012C0AD1274E706B00F058FC3A
:1049F0002B780021A34330002B70FBF783FE00F0DF
:104A0000C1F9FBF75DFC374C2368C01AF423FF3370
:104A100098420ED9FBF754FC206000F03BFC0128C3
:104A200002D0022800D0AEE080211648C900FCF771
:104A30009FFCFBF745FC2C4B1B68C01A0E2800D8C6
:104A40009DE0224900230A00BC3213600B60009BEA
:104A50002E20C83B5B009C46013B0493009B7F27B4
:104A6000193B5B00029301330393204B05311A6815
:104A7000012313403CE0C046100100202406002022
:104A80000010024000040048380500200064004087
:104A9000865E000800440040A806002000093D0092
:104AA000785E000844060020003001402805002000
:104AB00000300040FF0F0000280600200006002004
:104AC000240500207E0100205C07002090010020CA
:104AD00000E100E08C01002054020020BC0700200F
:104AE000BC050020880100208401002080010020F6
:104AF000013B05932E23009D1C1A8A784B78A54212
:104B000048D0604546D0049DA84243D0033A033BB9
:104B1000029D854206D0039DA84203D0009DA03D82
:104B2000A54200D17F32D543DE43ED17F61733405F
:104B30002A407F2A00DD3A008A707F2B00DD3B008F
:104B4000059ADBB24B7013400B70154BA4001C1977
:104B50000723227901381A4071331343237104313A
:104B60000028C7D1BE23009A5B009A4215D01300DB
:104B700001339BB20093FBF7A3FB0A4B18600A4872
:104B8000FCF72AFCA9E680210122C9000748FCF7AE
:104B9000E9FB4EE77C327C33BAE70090EBE7C04696
:104BA0009001002084010020280500200004004816
:104BB000074B1B78DBB21F2B08D8054A1378DBB2F2
:104BC0000449C85413780133DBB213707047C046F0
:104BD000930200209C07002010B5092804D830302B
:104BE000C0B2FFF7E5FF10BD3730C0B2F9E710B52E
:104BF00004000009FFF7F0FF0F202040FFF7ECFF53
:104C000010BD30B50023136009E01D00413DEDB239
:104C1000052D18D85B18373B1360013021004C1E5E
:104C2000E4B2002918D00378002B16D013681901BC
:104C3000116003781D00303DEDB2092DE5D85B18F9
:104C4000303B1360E9E71D00613DEDB2052D06D84C
:104C50005B18573B1360E0E70123180030BD0023C9
:104C6000FBE70000F0B583B005000378722B42D05B
:104C7000522B40D0314B1B6B0022DA602B78592B22
:104C80003ED8681C01AA0821FFF7BBFF002853D0BB
:104C90002A4B1A6B042191601B6B019A5A60082001
:104CA00007000130281801AA0121FFF7AAFF0028F8
:104CB00042D0224B1A6B019911611B6BDA68002AF2
:104CC0002ED11E7C082E00D908260024B44227D2FB
:104CD000BB1C62009818281801AA0221FFF791FF57
:104CE000002829D0154B1B6B1B196A4612791A75BF
:104CF0000134E4B2EAE7114B1B6B0222DA60BDE734
:104D0000681C01AA0321FFF77CFF002814D00B4B7D
:104D10001A6B002191601B6B019A1A600320BFE798
:104D20001E20FBF793FF00210448FBF72FFC040033
:104D30001E20FBF781FF200003B0F0BD38050020E6
:104D400010B5082000F0B2FB0022074B9A6000F07B
:104D5000F1FA002800D010BD1E30FBF76DFF0222D3
:104D6000024B1A70F7E7C046380500209402002075
:104D700010B51E20FBF76AFF0022014B1A7010BD10
:104D80009402002010B5124B1B78002B0ED0FE238E
:104D90005B00104AD35C032B09D00D4B1A780E49E7
:104DA0000E48FEF7F5F90022094B1A7010BD862354
:104DB0009B00084AD258043BD358002BF7D1044B30
:104DC0001978054800F098FD0028F8D1EBE7C046B7
:104DD00093020020BC0700209C070020A8060020AA
:104DE00070B505000122094B1A70094C1D320021D3
:104DF000200000F0EAFF2800FBF790F902002900EC
:104E0000200000F0D9FF002070BDC04650020020F5
:104E10005402002070B50D280CD00A2815D00D4B77
:104E20001B780D4AD0541C2B11D80133094A13703A
:104E3000002070BD074C2278074900258D54074893
:104E400000F0BAFF25700120F3E70020F1E7002011
:104E5000EFE7C046920200207402002054020020B6
:104E600030B595B005000478002C19D0433CE3B26E
:104E7000332B00D9F8E19C00B04B1B599F46B04B37
:104E80001B780D2B0FD00D22AD4B1A70AC4B1C783C
:104E900000232B702000FFF78BFE072C00D1EBE1E5
:104EA000200015B030BD0A22A54B1A70EEE7A54BC5
:104EB0001B78002B00D0D9E14378303BDAB2092AC5
:104EC00000D9D5E19300A04AD3589F46002000F0B6
:104ED000EDFA9B4B1C78DBE7012000F0E7FA984BDA
:104EE0001C78D5E7022000F0E1FA954B1C78CFE75B
:104EF000032000F0DBFA924B1C78C9E7042000F095
:104F0000D5FA8F4B1C78C3E7052000F0CFFA8C4B05
:104F10001C78BDE7062000F0C9FA894B1C78B7E77A
:104F2000072000F0C3FA864B1C78B1E7082000F098
:104F3000BDFA834B1C78ABE7242000F0B7FA804B16
:104F40001C78A5E77E4B1C78A2E77E4B1B78002BD4
:104F500001D007249CE7013007AA0221FFF751FE88
:104F6000002801D1072493E7E81C08AA0221FFF7D3
:104F700048FE002801D107248AE7681D09AA0221FA
:104F8000FFF73FFE002801D1072481E7E81D0AAAA8
:104F90000421FFF736FE002801D1072478E76B4B88
:104FA000079ADA60089A1A61099A5A610A9A5A604D
:104FB00000F0C0F9624B1C786AE75620FFF7F8FD55
:104FC0000020FFF714FE0320FFF711FE6820FFF713
:104FD000EFFD5B4B1C785BE77620FFF7E9FD0620D1
:104FE000FFF705FE0020FFF702FE6820FFF7E0FD57
:104FF000534B1C784CE74E20FFF7DAFD544C2068E9
:10500000C0B2FFF7F4FD20680012C0B2FFF7EFFD59
:1050100020680014C0B2FFF7EAFD2068000EFFF719
:10502000E6FD474B1C7833E70022484B9A6000F0BE
:1050300081F9002801D007242AE71E30FBF7FCFD88
:105040000222404B1A703E4B1C7821E78022D20589
:105050003E4B9A601E20FBF7EFFD00F06BF9022239
:10506000384B1A70364B1C7812E7364B1B78002BE6
:1050700001D007240CE780221206344B9A601E20D0
:10508000FBF7DAFD00F056F901222E4B1A702C4B7B
:105090001C78FDE62F4B1B78002B01D00724F7E688
:1050A0001E20FBF7D3FD0022264B1A70244B1C78E0
:1050B000EEE6244B1B78022B01D00724E8E6FFF72D
:1050C000D1FD002800D0D5E02B78592B05D85A30D7
:1050D000FFF76EFD1A4B1C78DAE67A20FFF768FDC1
:1050E000F8E71A48FBF774FDC4B24620FFF760FDED
:1050F0002000FFF77CFD124B1C78C9E601300AAA9C
:105100000121FFF77EFD002802D00D4B1C78BFE681
:105110000724BDE64378642B08D0013003AA02219E
:10512000FFF76FFD002817D10724B1E600F012F950
:10513000034B1C784D20FFF73BFDA9E68C5E000871
:1051400014010020940200205C5F00083805002054
:105150002406002050020020E81C04AA0221FFF7C8
:1051600050FD0028E0D0681D05AA0121FFF749FD88
:105170000028D9D0A81D08AA0821FFF742FD002861
:10518000D2D006AA012128000E30FFF73AFD0028F0
:10519000CAD009AA082128000F30FFF732FD0028E5
:1051A000C2D007AA012128001730FFF72AFD0028E6
:1051B000BAD005AB1B785B0731D50899069800F08B
:1051C000E3F801900999079800F0DEF80290039B3C
:1051D0000F93049B139305AB1B78DA07D20F12923F
:1051E0009A07D20F10925A07D20F11921B07DB0FAA
:1051F0000E9301AB1A880A925B880B9302AB1A8854
:105200000C925B880D934D20FFF7D2FC0AA91E4833
:10521000FBF76EF800280DD11C4B1C7838E6089976
:10522000069800F0EBF801900999079800F0E6F86D
:105230000290CCE707242BE643786F2B01D007249C
:1052400026E683786F2B01D0072421E6C378742BE0
:1052500001D007241CE60023037043708370C370E1
:10526000FFF75EF9072413E6072411E607240FE68B
:1052700007240DE607240BE6FFF76EF91E22002136
:10528000034800F0A2FD0BE63805002014010020C1
:1052900054020020014B18787047C0469402002049
:1052A00070B505008368042B18D0C368022B2AD080
:1052B0007420FFF77DFC6B780F201840FFF78CFC03
:1052C0002878FFF794FC287CFFF786FC2B69002BDD
:1052D00026D0EB68022B23D000241EE0C368022BEB
:1052E00004D05420FFF764FC042409E05220FFF7A7
:1052F0005FFCF9E72A1D013C105DFFF778FCE4B282
:10530000002CF7D1DFE77220FFF752FCD3E72B190F
:10531000187DFFF76CFC0134E4B22B699C42F6D196
:10532000034B1878FFF744FCFFF72CFD002070BDFD
:105330001401002010B502E00448FCF74DF80448C1
:10534000FBF764F80328F7D0002010BD28050020E3
:105350003805002000B58BB0002305930693012289
:105360000792009301930293039304930892099385
:1053700069460448FAF7BCFF002801D10BB000BD14
:105380000120FBE73805002010B582B000236A46F3
:1053900013805380C307DB0F012213408407E40FFF
:1053A000224092005B0013436A469370830711D436
:1053B0004A016B4618781F23034013436A46137053
:1053C000C9085170009B1A0C12041804000C1043F9
:1053D00002B010BDCA006B46987807230340134300
:1053E0006A4693704B09D370490B1F230B40117809
:1053F0001F22914319436B461970E3E770B582B0E1
:1054000000236A4613805380C307DB0F0122134039
:105410008407E40F22401201DB0013436A469370B5
:10542000C5B2AB0711D54C0192781F23134022005F
:105430001A43CB086C46E3700C0A07231C40D3B216
:105440000722934323436A4693704407E40F0126DF
:105450003440E4006B469B78082293430207D20F46
:1054600032401201234318001023984310436B4627
:1054700098702B0712D50A0C0720024052016B4688
:105480001C781F232340CC0C6D466C70090E08401D
:10549000134319000723994301432970009B1A0CF9
:1054A00012041804000C104302B070BD10B51B4B61
:1054B00080225204DA60A02212031A61C0229203F1
:1054C0005A61242806D88000154B1B589F4603229A
:1054D000124B5A60FFF72EFF10BD06220F4B5A6089
:1054E000F8E70C220D4B5A60F4E718220B4B5A6078
:1054F000F0E71E22094B5A60ECE73C22074B5A604A
:10550000E8E79622054B5A60E4E796225200034BE7
:105510005A60DFE72422014B5A60DBE738050020A0
:10552000845F000800B583B0124B996901221143D2
:10553000996199690A400092009ADA6980214905C7
:105540000A43DA61DB690B400193019B02220221CD
:1055500005204042FBF73EFB02220221022040428E
:10556000FBF738FB0222022101204042FBF732FB0D
:1055700003B000BD0010024000B587B002680F4BB9
:105580009A4201D007B000BD0D4AD1698020800445
:105590000143D161D36903400093009BC0239B006A
:1055A00001930223029300230393033304930133F3
:1055B000059301A90348FBF715FEE3E700640040EB
:1055C000001002400004004830B587B00400284BAA
:1055D00002689A4201D007B030BD264AD1698020C6
:1055E00080020143D161D36903400093009B0E23E5
:1055F00001930C3B02930025039501330493023B76
:10560000059301A99020C005FBF7ECFD1A481B4B40
:1056100003601023436085607033C360056145619A
:105620008561C561FBF74EFB002816D1124B23663E
:105630005C621348134B0360002343608360802245
:10564000C260036143618361C361FBF73BFB0028D8
:1056500008D10B4B63665C62BDE7B2210A48FEF7D6
:10566000C9FFE3E7C2210848FEF7C4FFF1E7C046DF
:105670000044004000100240BC05002044000240ED
:10568000E0040020580002401860000830B587B0E0
:105690000400204B02689A4201D007B030BD1E4A78
:1056A0009169802040010143916193690340009317
:1056B000009BA02301939E3B029300250395013399
:1056C0000493059501A99020C005FBF78BFD1348B5
:1056D000134B03601023436085607033C360056122
:1056E0004561603B8361C561FBF7ECFA00280BD193
:1056F0000A4B63655C62022202211920FBF76AFAF9
:105700001920FBF799FAC8E70E21FF310548FEF78B
:1057100071FFEDE700300140001002401807002043
:1057200030000240186000087047FEE7704770477D
:1057300010B5FAF7BDFDFBF7C0FA10BD10B5034870
:10574000FBF769FB0248FBF766FB10BDBC050020B8
:10575000E004002010B50248FCF7D2FE10BDC046A0
:10576000E00A002010B50248FBF74EF910BDC04614
:105770003805002010B50C48FBF72EFE0B4BDB69FB
:105780009B0303D40A48FEF767F810BD074A116A65
:1057900080239B020B431362054C2000FDF78CFD18
:1057A0002000FEF717FFEDE7280500200044004029
:1057B000A806002010B50248FBF72DFB10BDC0461F
:1057C0001807002010B50248FDF74CFC10BDC0467C
:1057D00044060020114B1A6801210A431A605A68D6
:1057E0000F4802405A601A680E4802401A601A6850
:1057F0000D4802401A605A680C4802405A60DA6A42
:105800000F208243DA621A6B094802401A635A6B0E
:105810008A435A6300229A607047C04600100240D3
:105820000CB8FF08FFFFF6FEFFFFFBFFFFFFC0FF06
:105830002CFEFFFF10B5094C002209492000FEF79D
:105840000FFA08492000FEF727FA07492000FEF763
:10585000B1F92000FEF729FA10BDC046BC070020B0
:105860002C010020000000201C01002000207047B7
:1058700070B505000E00002403E0285DFFF7CAFAAA
:10588000013433689C420CD0FFF704FD0028F4D1AA
:10589000285DFFF7BFFA0028F2D00748FFF7E0FACB
:1058A000EEE7064C29002000FEF798F92000FEF7ED
:1058B000B9F9002070BDC04654020020BC0700208A
:1058C00010B5222801D1FFF753FA002010BD0000C7
:1058D00010B5064C002206492000FEF774F9054970
:1058E0002000FEF77BF9002010BDC046BC07002059
:1058F000600A0020E009002070B50C0086239B00A0
:105900000B4AD258043BD358002B01D0012070BD64
:10591000084E0A000100300000F04EFA044D22004B
:1059200031002800FEF74FF92800FEF75EF9EEE798
:10593000BC070020600A002010B5FEF76BFE10BD0A
:1059400000B583B002680C4B9A4201D003B000BD91
:105950000A4AD169802000040143D161D369034020
:105960000193019B022202211F20FBF733F91F2024
:10597000FBF762F9EAE7C046005C00400010024015
:1059800010B5010087239B00C058ED31FF31FEF7B1
:10599000A9F910BD10B50300872292008058CA00F3
:1059A000521A94001B191933FF331A68FEF7CEF907
:1059B00010BD10B50300872292008058CA00521A09
:1059C00094001B199A6BFEF7FEF910BD10B58723E2
:1059D0009B00C058FEF791FA10BD70B505008724F2
:1059E000A40001210059FEF773FA2859FEF74DFA79
:1059F00070BD000010B5040087239B00C058FEF75F
:105A00006AFAA369002B04D0024A136906210B43EA
:105A1000136110BD00ED00E010B504008369002B98
:105A200005D187239B00E058FEF760FA10BD044AB9
:105A3000136906218B431361FFF77EFFF1E7C04630
:105A400000ED00E070B504001F4887239B00C450A0
:105A50000433E0501D4B0360082343600222826040
:105A60000023C36002618361C3610362FBF7BCFC76
:105A7000002823D18825AD00182300220021605979
:105A8000FCF7CEFD5823002280216059FCF7C8FDA9
:105A9000C023002281216059FCF7C2FD88235B00EE
:105AA000002201216059FCF7BBFD605980235B0097
:105AB00000228221FCF7B4FD002070BD9A2149002C
:105AC0000348FEF797FDD5E7E00A0020005C0040A0
:105AD0004C60000810B588239B00C058FBF7E4FC1D
